:020000040800F2
:1000000000800020692F0008192F0008F92E000831
:10001000D92E0008B92E0008992E00080000000013
:10002000000000000000000000000000B12D0008EA
:10003000B32D00080000000061200008392F0008DF
:10004000792E0008792E0008792E0008792E0008F4
:10005000792E0008792E0008792E0008792E0008E4
:10006000792E0008792E0008792E0008792E0008D4
:10007000792E0008792E0008792E0008792E0008C4
:10008000792E000800000000792E0008792E000863
:10009000792E0008792E0008792E0008792E0008A4
:1000A000792E0008792E0008792E0008792E000894
:1000B000792E0008792E0008792E0008792E000884
:1000C000792E0008792E0008792E0008792E000874
:1000D000792E0008632E0008792E0008792E00087A
:1000E000792E0008792E0008792E0008792E000854
:1000F000792E0008792E0008792E000800000000F3
:1001000000000000792E000800000000792E000891
:10011000792E000800000000792E0008792E0008D2
:10012000792E0008792E0008792E0008792E000813
:10013000792E00080000000000000000792E000861
:10014000792E0008792E0008000000000000000051
:10015000000000000000000000000000000000009F
:10016000000000000000000000000000792E0008E0
:10017000792E0008000000000000000000000000D0
:1001800000000000792E00080000000000000000C0
:10019000000000000000000000000000000000005F
:1001A0000000000000000000792E0008792E0008F1
:1001B000792E0008792E0008792E00080000000032
:1001C00000000000792E0008000000000000000080
:0801D000792E0008792E0008C9
:10020000844641EA000313F003036DD1403A41D321
:1002100051F8043B40F8043B51F8043B40F8043BE0
:1002200051F8043B40F8043B51F8043B40F8043BD0
:1002300051F8043B40F8043B51F8043B40F8043BC0
:1002400051F8043B40F8043B51F8043B40F8043BB0
:1002500051F8043B40F8043B51F8043B40F8043BA0
:1002600051F8043B40F8043B51F8043B40F8043B90
:1002700051F8043B40F8043B51F8043B40F8043B80
:1002800051F8043B40F8043B51F8043B40F8043B70
:10029000403ABDD2303211D351F8043B40F8043B10
:1002A00051F8043B40F8043B51F8043B40F8043B50
:1002B00051F8043B40F8043B103AEDD20C3205D320
:1002C00051F8043B40F8043B043AF9D2043208D018
:1002D000D2071CBF11F8013B00F8013B01D30B888A
:1002E00003806046704700BF082A13D38B078DD068
:1002F00010F003038AD0C3F10403D21ADB071CBF3A
:1003000011F8013B00F8013B80D331F8023B20F8A3
:10031000023B7BE7043AD9D3013A11F8013B00F8DC
:10032000013BF9D20B7803704B7843708B78837064
:100330006046704700000000000000000000000060
:1003400090F800F06DE9024520F007016FF0000C15
:1003500010F0070491F820F040F049804FF00004BD
:100360006FF00700D1E9002391F840F000F1080098
:1003700082FA4CF2A4FA8CF283FA4CF3A2FA8CF3D0
:100380004BBBD1E9022382FA4CF200F10800A4FA37
:100390008CF283FA4CF3A2FA8CF3E3B9D1E904238B
:1003A00082FA4CF200F10800A4FA8CF283FA4CF3C2
:1003B000A2FA8CF37BB9D1E9062301F1200182FA7C
:1003C0004CF200F10800A4FA8CF283FA4CF3A2FA82
:1003D0008CF3002BC6D0002A04BF04301A4612BA90
:1003E000B2FA82F2FDE8024500EBD2007047D1E993
:1003F000002304F00305C4F100004FEAC50514F022
:10040000040F91F840F00CFA05F562EA05021CBFF2
:1004100063EA050362464FF00004A9E781F000415A
:1004200002E000BF83F0004330B54FEA41044FEAD9
:10043000430594EA050F08BF90EA020F1FBF54EA74
:10044000000C55EA020C7FEA645C7FEA655C00F010
:10045000E2804FEA5454D4EB5555B8BF6D420CDDE1
:100460002C4480EA020281EA030382EA000083EA64
:10047000010180EA020281EA0303362D88BF30BD04
:1004800011F0004F4FEA01314FF4801C4CEA11315A
:1004900002D0404261EB410113F0004F4FEA0333B9
:1004A0004CEA133302D0524263EB430394EA050F44
:1004B00000F0A780A4F10104D5F1200E0DDB02FAB3
:1004C0000EFC22FA05F2801841F1000103FA0EF247
:1004D000801843FA05F359410EE0A5F120050EF10D
:1004E000200E012A03FA0EFC28BF4CF0020C43FA3E
:1004F00005F3C01851EBE37101F0004507D54FF04B
:10050000000EDCF1000C7EEB00006EEB0101B1F59A
:10051000801F1BD3B1F5001F0CD349085FEA3000E0
:100520004FEA3C0C04F101044FEA445212F5800FEB
:1005300080F09A80BCF1004F08BF5FEA500C50F188
:10054000000041EB045141EA050130BD5FEA4C0C6B
:10055000404141EB0101013C28BFB1F5801FE9D2C8
:1005600091F0000F04BF01460020B1FA81F308BFEB
:100570002033A3F10B03B3F120020CDA0C3208DDB7
:1005800002F1140CC2F10C0201FA0CF021FA02F192
:100590000CE002F11402D8BFC2F1200C01FA02F102
:1005A00020FA0CFCDCBF41EA0C019040E41AA2BF27
:1005B00001EB0451294330BD6FEA04041F3C1CDAEF
:1005C0000C340EDC04F11404C4F1200220FA04F00F
:1005D00001FA02F340EA030021FA04F345EA0301B9
:1005E00030BDC4F10C04C4F1200220FA02F001FA7B
:1005F00004F340EA0300294630BD21FA04F02946FD
:1006000030BD94F0000F83F4801306BF81F4801195
:100610000134013D4EE77FEA645C18BF7FEA655C08
:1006200029D094EA050F08BF90EA020F05D054EADA
:10063000000C04BF1946104630BD91EA030F1EBFDF
:100640000021002030BD5FEA545C05D140004941E3
:1006500028BF41F0004130BD14F580043CBF01F5D6
:10066000801130BD01F0004545F0FE4141F47001BC
:100670004FF0000030BD7FEA645C1ABF1946104697
:100680007FEA655C1CBF0B46024650EA013406BF98
:1006900052EA033591EA030F41F4002130BD00BF57
:1006A00090F0000F04BF0021704730B54FF4806414
:1006B00004F132044FF000054FF0000150E700BF95
:1006C00090F0000F04BF0021704730B54FF48064F4
:1006D00004F1320410F0004548BF40424FF00001E1
:1006E0003EE700BF42004FEAE2014FEA31014FEA24
:1006F00002701FBF12F07F4393F07F4F81F0605173
:10070000704732F07F4208BF704793F07F4F04BFBD
:1007100041F40021704730B54FF4607401F000459A
:1007200021F000411CE700BF50EA010208BF7047FA
:1007300030B54FF000050AE050EA010208BF7047EB
:1007400030B511F0004502D5404261EB41014FF454
:10075000806404F132045FEA915C3FF4D8AE4FF05C
:1007600003025FEADC0C18BF03325FEADC0C18BF3F
:10077000033202EBDC02C2F1200300FA03FC20FA90
:1007800002F001FA03FE40EA0E0021FA02F11444DD
:10079000BDE600BF70B54FF0FF0C4CF4E06C1CEAF6
:1007A00011541DBF1CEA135594EA0C0F95EA0C0F67
:1007B00000F0DEF82C4481EA030621EA4C5123EADA
:1007C0004C5350EA013518BF52EA033541F4801109
:1007D00043F4801338D0A0FB02CE4FF00005E1FBBC
:1007E00002E506F00042E0FB03E54FF00006E1FB06
:1007F00003569CF0000F18BF4EF0010EA4F1FF0449
:10080000B6F5007F64F5407404D25FEA4E0E6D4188
:1008100046EB060642EAC62141EA55514FEAC52099
:1008200040EA5E504FEACE2EB4F1FD0C88BFBCF515
:10083000E06F1ED8BEF1004F08BF5FEA500E50F1C6
:10084000000041EB045170BD06F0004646EA01018C
:1008500040EA020081EA0301B4EB5C04C2BFD4EBBE
:100860000C0541EA045170BD41F480114FF0000EB7
:10087000013C00F3AB8014F1360FDEBF002001F025
:10088000004170BDC4F10004203C35DA0C341BDC9F
:1008900004F11404C4F1200500FA05F320FA04F071
:1008A00001FA05F240EA020001F0004221F00041A5
:1008B00010EBD37021FA04F642EB06015EEA430E18
:1008C00008BF20EAD37070BDC4F10C04C4F1200548
:1008D00000FA04F320FA05F001FA04F240EA0200FB
:1008E00001F0004110EBD37041F100015EEA430ECC
:1008F00008BF20EAD37070BDC4F1200500FA05F2EC
:100900004EEA020E20FA04F301FA05F243EA02036A
:1009100021FA04F001F0004121FA04F220EA020079
:1009200000EBD3705EEA430E08BF20EAD37070BDBF
:1009300094F0000F0FD101F00046400041EB01019F
:1009400011F4801F08BF013CF7D041EA060195F081
:10095000000F18BF704703F00046520043EB03033B
:1009600013F4801F08BF013DF7D043EA0603704728
:1009700094EA0C0F0CEA135518BF95EA0C0F0CD033
:1009800050EA410618BF52EA4306D1D181EA030179
:1009900001F000414FF0000070BD50EA410606BF73
:1009A0001046194652EA430619D094EA0C0F02D1B8
:1009B00050EA013613D195EA0C0F05D152EA0336FD
:1009C0001CBF104619460AD181EA030101F000411B
:1009D00041F0FE4141F470014FF0000070BD41F064
:1009E000FE4141F4780170BD70B54FF0FF0C4CF43E
:1009F000E06C1CEA11541DBF1CEA135594EA0C0F5D
:100A000095EA0C0F00F0A7F8A4EB050481EA030EA9
:100A100052EA03354FEA013100F088804FEA033390
:100A20004FF0805545EA131343EA12634FEA02225E
:100A300045EA111545EA10654FEA00260EF000411F
:100A40009D4208BF964244F1FD0404F5407402D271
:100A50005B084FEA3202B61A65EB03055B084FEA02
:100A600032024FF480104FF4002CB6EB020E75EBFF
:100A7000030E22BFB61A754640EA0C005B084FEA27
:100A80003202B6EB020E75EB030E22BFB61A7546A4
:100A900040EA5C005B084FEA3202B6EB020E75EBEF
:100AA000030E22BFB61A754640EA9C005B084FEA67
:100AB0003202B6EB020E75EB030E22BFB61A754674
:100AC00040EADC0055EA060E18D04FEA051545EA63
:100AD00016754FEA06164FEAC30343EA52734FEA0C
:100AE000C2025FEA1C1CC0D111F4801F0BD141EA85
:100AF00000014FF000004FF0004CB6E711F4801FEA
:100B000004BF01430020B4F1FD0C88BFBCF5E06FC9
:100B10003FF6AFAEB5EB030C04BFB6EB020C5FEAD9
:100B2000500C50F1000041EB045170BD0EF0004E2E
:100B30004EEA113114EB5C04C2BFD4EB0C0541EA60
:100B4000045170BD41F480114FF0000E013C90E65D
:100B500045EA060E8DE60CEA135594EA0C0F08BF21
:100B600095EA0C0F3FF43BAF94EA0C0F0AD150EA20
:100B700001347FF434AF95EA0C0F7FF425AF1046B3
:100B800019462CE795EA0C0F06D152EA03353FF4DB
:100B9000FDAE1046194622E750EA410618BF52EA58
:100BA00043067FF4C5AE50EA41047FF40DAF52EA2C
:100BB00043057FF4EBAE12E74FF0FF3C06E000BFC9
:100BC0004FF0010C02E000BF4FF0010C4DF804CDD6
:100BD0004FEA410C7FEA6C5C4FEA430C18BF7FEA96
:100BE0006C5C1BD001B050EA410C0CBF52EA430CC4
:100BF00091EA030F02BF90EA020F0020704710F144
:100C0000000F91EA030F58BF994208BF90422CBFD2
:100C1000D8176FEAE37040F0010070474FEA410CCB
:100C20007FEA6C5C02D150EA013C07D14FEA430CE9
:100C30007FEA6C5CD6D152EA033CD3D05DF8040B5A
:100C4000704700BF8446104662468C46194663468C
:100C500000E000BF01B5FFF7B7FF002848BF10F163
:100C6000000F01BD4DF808EDFFF7F4FF0CBF0120A8
:100C700000205DF808FB00BF4DF808EDFFF7EAFF24
:100C800034BF012000205DF808FB00BF4DF808EDDF
:100C9000FFF7E0FF94BF012000205DF808FB00BFD4
:100CA0004DF808EDFFF7CEFF94BF012000205DF85E
:100CB00008FB00BF4DF808EDFFF7C4FF34BF01206B
:100CC00000205DF808FB00BF4FEA410C7FEA6C5C36
:100CD00002D150EA013C0AD14FEA430C7FEA6C5C36
:100CE00002D152EA033C02D14FF0000070474FF0AE
:100CF000010070474FEA410212F5001215D211D5DA
:100D00006FF47873B3EB625212D94FEAC12343F008
:100D1000004343EA505311F0004F23FA02F018BF8A
:100D2000404270474FF00000704750EA013005D153
:100D300011F0004008BF6FF0004070474FF0000016
:100D4000704700BF53B94AB9002908BF00281CBF2B
:100D50004FF0FF314FF0FF3000F074B9ADF1080CE7
:100D60006DE904CE00F006F8DDF804E0DDE90223C9
:100D700004B070472DE9F047089D04468E46002BCD
:100D80004DD18A42944669D9B2FA82F252B101FA3F
:100D900002F3C2F1200120FA01F10CFA02FC41EA4F
:100DA000030E94404FEA1C48210CBEFBF8F61FFAD4
:100DB0008CF708FB16E341EA034306FB07F199426F
:100DC0000AD91CEB030306F1FF3080F01F81994222
:100DD00040F21C81023E63445B1AA4B2B3FBF8F0FC
:100DE00008FB103344EA034400FB07F7A7420AD983
:100DF0001CEB040400F1FF3380F00A81A74240F2AB
:100E000007816444023840EA0640E41B00261DB115
:100E1000D4400023C5E900433146BDE8F0878B424A
:100E200009D9002D00F0EF800026C5E90001304609
:100E30003146BDE8F087B3FA83F6002E4AD18B42E3
:100E400002D3824200F2F980841A61EB030301208D
:100E50009E46002DE0D0C5E9004EDDE702B9FFDE79
:100E6000B2FA82F2002A40F09280A1EB0C014FEA24
:100E70001C471FFA8CFE0126200CB1FBF7F307FB81
:100E8000131140EA01410EFB03F0884208D91CEB24
:100E9000010103F1FF3802D2884200F2CB804346C1
:100EA000091AA4B2B1FBF7F007FB101144EA0144A0
:100EB0000EFB00FEA64508D91CEB040400F1FF312F
:100EC00002D2A64500F2BB800846A4EB0E0440EA1D
:100ED00003409CE7C6F12007B34022FA07FC4CEA26
:100EE000030C20FA07F401FA06F31C43F9404FEA19
:100EF0001C4900FA06F3B1FBF9F8200C1FFA8CFE2E
:100F000009FB181140EA014108FB0EF0884202FA81
:100F100006F20BD91CEB010108F1FF3A80F0888042
:100F2000884240F28580A8F102086144091AA4B2FF
:100F3000B1FBF9F009FB101144EA014100FB0EFE80
:100F40008E4508D91CEB010100F1FF346CD28E45AF
:100F50006AD90238614440EA0840A0FB0294A1EB40
:100F60000E01A142C846A64656D353D05DB1B3EB9D
:100F7000080261EB0E0101FA07F722FA06F3F140CD
:100F80001F43C5E9007100263146BDE8F087C2F174
:100F90002003D8400CFA02FC21FA03F391400143EC
:100FA0004FEA1C471FFA8CFEB3FBF7F007FB103625
:100FB0000B0C43EA064300FB0EF69E4204FA02F4D1
:100FC00008D91CEB030300F1FF382FD29E422DD924
:100FD000023863449B1B89B2B3FBF7F607FB163359
:100FE00041EA034106FB0EF38B4208D91CEB0101D9
:100FF00006F1FF3816D28B4214D9023E6144C91A59
:1010000046EA004638E72E46284605E70646E3E668
:101010001846F8E64B45A9D2B9EB020864EB0C0E72
:101020000138A3E74646EAE7204694E74046D1E781
:10103000D0467BE7023B614432E7304609E764442F
:10104000023842E7704700BF034AD2F8883043F4C1
:101050007003C2F88830704700ED00E043684A43EF
:1010600023EA010313434360704730B5046891FAE3
:10107000A1F3B3FA83F303255B0005FA03F324EA33
:10108000030391FAA1F1B1FA81F149008A401343B7
:10109000036030BD30B5846891FAA1F3B3FA83F3ED
:1010A00003255B0005FA03F324EA030391FAA1F197
:1010B000B1FA81F149008A401343836030BD30B5F5
:1010C000C46891FAA1F3B3FA83F303255B0005FA30
:1010D00003F324EA030391FAA1F1B1FA81F1490083
:1010E0008A401343C36030BD30B5046A91FAA1F35E
:1010F000B3FA83F30F259B0005FA03F324EA0303F5
:1011000091FAA1F1B1FA81F189008A401343036297
:1011100030BD30B5090A446A91FAA1F3B3FA83F3FA
:101120000F259B0005FA03F324EA030491FAA1F1C9
:10113000B1FA81F189008A402243426230BD2DE933
:10114000F04107460C460D6895FAA5F54FF00108E9
:10115000B5FA85F5236833FA05F001D1BDE8F081D1
:1011600008FA05F61E401FD06368013B012B08D822
:10117000A26831463846FFF78DFFE2682168FFF725
:101180006DFF226931463846FFF799FF6368022BED
:1011900005D1FF2E6269314608D8FFF7A5FF6268C6
:1011A00031463846FFF761FF0135D3E7FFF7B1FF5E
:1011B000F5E70000024B1868C0F38020704700BFBD
:1011C00000100240024BD3F89000C0F3400070477B
:1011D00000100240024B986800F00C00704700BFFE
:1011E00000100240024B986800F0F000704700BF0A
:1011F00000100240024B986800F4E060704700BFA6
:1012000000100240024B986800F46050704700BF25
:1012100000100240034BD3F88830034043EA0040FB
:10122000704700BF00100240024BD86800F0030076
:10123000704700BF00100240024BD868C0F3062080
:10124000704700BF00100240024BD86800F0C06039
:10125000704700BF00100240024BD86800F0F00059
:10126000704700BF0010024008B50246FFF7BAFF02
:10127000044BC0F303101B5C03F01F0322FA03F0BE
:1012800008BD00BF143C000808B50246FFF7B2FFD6
:10129000034B000A1B5C03F01F0322FA03F008BD96
:1012A000243C000808B50246FFF7ACFF034BC00A18
:1012B0001B5C03F01F0322FA03F008BD243C000866
:1012C00008B5FFF7B1FF0B4A0B4B032808BF1A46BE
:1012D000FFF7B2FF4243FFF7BFFF00090130B2FB47
:1012E000F0F2FFF7B1FF400E01304000B2FBF0F02A
:1012F00008BD00BF0024F40000127A0008B5FFF713
:1013000069FF082805D00C2805D1BDE80840FFF783
:10131000D7BF024808BD0248FCE700BF00127A00B0
:101320000024F400032808B524D1FFF773FF224BF3
:10133000984209D0B0F1031F0DD0013B984211D162
:10134000BDE80840FFF7DABFFFF734FF08B9002017
:1013500008BD1A48FCE7FFF735FF0028F7D04FF427
:101360000040F5E7FFF7CAFFFFF77EFFBDE8084042
:10137000FFF798BF0C2812D1FFF74CFF104B984293
:10138000E2D0B0F10C1FE6D0043B9842D8D0FFF772
:10139000B5FFFFF769FFBDE80840FFF775BF3028CC
:1013A000D5D1FFF737FF074B9842CDD0B0F1301FB2
:1013B000D1D0103BE9E700BF020003000024F40095
:1013C00008000C0020003000C02808B501D0002023
:1013D00008BDFFF71FFF114B984209D0B0F1C01FA5
:1013E0000CD0403B984210D1BDE80840FFF786BFC3
:1013F000FFF7E0FE0028EAD00948E9E7FFF7E2FE40
:101400000028E4D04FF40040E2E7FFF777FFFFF752
:101410002BFFBDE80840FFF737BF00BF8000C000CA
:101420000024F400006800F001007047C36A89B22C
:1014300023F00F030B43C3627047436823F4405308
:10144000194341607047836823F4407319438160F6
:101450007047000030B50B2A039C15D8A4B10D4D80
:10146000B3F5004F55F82220B1FBF2F14FEA5402D8
:101470000BD102EB41014FF6F072B1FBF4F10A40DF
:10148000C1F342011143C16030BD1144B1FBF4F11D
:1014900089B2F8E72C3C000837B505460C46FFF743
:1014A000C1FF00283DD12269A368296813436269FE
:1014B0001343E26913431C4A0A4013432B60E1685B
:1014C0002846FFF7BAFFA169FFF7BDFF174B9D4202
:1014D0000ED10320FFF726FFB8B16368ABB12268D5
:1014E00000930146E3692846FFF7B4FF00220DE0B0
:1014F0000F4B9D4201D10C20ECE70E4B9D4201D1D8
:101500003020E7E70C4B9D4207D001222168284696
:10151000FFF78CFF104603B030BDC020FFF754FF2B
:10152000DAE70122F6E700BFF369FFEF0038014078
:101530000044004000480040004C004038B50F4BCC
:101540000546186808B9012038BD0D4A4FF47A7372
:10155000B3FBF0F31068B0FBF3F000F091F8044631
:101560000028F0D10F2DEED8024629464FF0FF306B
:1015700000F07AF8034B20461D60E5E704000020E8
:101580000000002008000020034A0449136809688D
:101590000B441360704700BF1800002004000020B7
:1015A000014B1868704700BF180000200749CA683F
:1015B00022F4E0620302120403F4E063120C13430A
:1015C00043F0BF6343F40033CB60704700ED00E0AD
:1015D000024BD868C0F30220704700BF00ED00E066
:1015E0000028ACBF00F16040064B4FEA0111ACBFD0
:1015F00000F5614000F00F00C9B2B4BF195480F883
:101600000013704714ED00E000F0070010B5C0F1C2
:101610000704031D042C28BF0424062B88BFC31E07
:101620004FF0FF3098BF002300FA04F421EA0401D0
:101630009840994022EA0000084310BD0138B0F1FB
:10164000807F08B50CD24FF0E0220F2150614FF09F
:10165000FF30FFF7C5FF002007239061136108BD2D
:101660000120FCE7FFF7A2BF10B50446FFF7B0FF6B
:10167000FFF7CAFF01462046BDE81040FFF7B0BFA4
:10168000FFF7DCBF294B1A6830BB02F4C062B2F529
:10169000806FD3F8802022F48072C3F880201AD1A2
:1016A0001A6822F4C06242F400721A60204A12687A
:1016B00032214A431F49B2FBF1F20132596949050F
:1016C00000D522B95B69580503D400207047013A60
:1016D000F4E7032070477047B0F5007F1FD102F494
:1016E000C062B2F5806FD3F8802042F48072C3F8F4
:1016F0008020EAD11A6822F4C06242F400721A60B3
:101700000B4A126832214A430A49B2FBF1F2013214
:1017100059694905D6D5002AD4D0013AF8E722F410
:10172000C06242F480621A60CFE700BF00700040E0
:101730000000002040420F00024A936843F48043B7
:1017400093607047007000400C4AD368D06803F083
:101750000303032BD3680CBF09490A49C0F30310E4
:10176000C3F306230130B1FBF0F04343D068C0F36C
:10177000416001304000B3FBF0F0704700100240C0
:1017800000127A000024F4002DE9F341044640B32E
:101790000368DE0714D423689D075BD42368190708
:1017A00000F1A48023685A0700F1CB8023689D06CE
:1017B00000F13281E069002840F06081002028E0DB
:1017C000A14DAB68EA6803F00C030C2B0BD102F0BF
:1017D0000303032B09D12B689803DCD56368002B26
:1017E000D9D1012015E0082BF4E76368B3F5803FF9
:1017F00012D12B6843F480332B60FFF7D1FE0646ED
:101800002B689903C7D4FFF7CBFE801B6428F7D958
:10181000032002B0BDE8F081B3F5A02F04D12B68FE
:1018200043F480232B60E4E72A6822F480322A60A4
:101830002A6822F480222A60002BDED1FFF7B0FE56
:1018400006462B689A03A6D5FFF7AAFE801B6428DC
:10185000F7D9DDE77C4DAB68EA6803F00C030C2B8D
:1018600017D102F00303022B15D12B685B0502D5BB
:10187000E368002BB5D06B68226923F0FE4343EA8E
:1018800002636B60714B1868FFF758FE002885D023
:10189000A7E7042BE8E7E368BBB12B6843F4807348
:1018A0002B60FFF77DFE06462B685F0507D56B684A
:1018B000226923F0FE4343EA02636B606EE7FFF7A1
:1018C0006FFE801B0228EFD9A2E72B6823F48073F8
:1018D0002B60FFF765FE06462B6858057FF55EAF67
:1018E000FFF75EFE801B0228F6D991E76369564D2B
:1018F0009BB1D5F8943043F00103C5F89430FFF75D
:101900004FFE0646D5F894309B073FF54BAFFFF7E7
:1019100047FE801B0228F5D97AE7D5F8943023F0EA
:101920000103C5F89430FFF73BFE0646D5F8943026
:101930009F077FF537AFFFF733FE801B0228F5D9ED
:1019400066E7414DAB6DDE0027D4AB6D43F08053AD
:10195000AB65AB6D03F080530193019B01273C4EB7
:101960003368D8051BD5A368012B29D1D5F8903051
:1019700043F00103C5F89030FFF712FE41F28838BA
:101980000646D5F890309A0740D5002F3FF40EAFA9
:10199000AB6D23F08053AB6508E70027DFE73368C2
:1019A00043F480733360FFF7FBFD80463368D9054D
:1019B000D9D4FFF7F5FDA0EB08000228F6D927E7F8
:1019C000052B06D1D5F8903043F00403C5F89030CC
:1019D000CCE7D5F8902022F00102C5F89020D5F888
:1019E000902022F00402C5F89020002BC4D1FFF70C
:1019F000D7FD41F288380646D5F890309B07C4D50C
:101A0000FFF7CEFD801B4045F6D901E7FFF7C8FD83
:101A1000801B4045B5D9FBE6A3690B4DD3B1D5F882
:101A2000983043F00103C5F89830FFF7B9FD06463A
:101A3000D5F8983098073FF5BDAEFFF7B1FD801B94
:101A40000228F5D9E4E600BF00100240080000209B
:101A500000700040D5F8983023F00103C5F89830A5
:101A6000FFF79EFD0646D5F8983099077FF5A2AEA0
:101A7000FFF796FD801B0228F5D9C9E6454DAB68F6
:101A800003F00C030C2B52D02B68022823F0807338
:101A90002B603AD1FFF784FD06462B689A012ED4BD
:101AA000EA683D4B1340226A1343A26A43EA0223C9
:101AB000E26A43EAC263626A013A43EA0213226BB2
:101AC0005208013A43EA4253626B5208013A43EA30
:101AD0004263EB602B6843F080732B60EB6843F04C
:101AE0008073EB60FFF75CFD04462B689B013FF5BC
:101AF00065AEFFF755FD001B0228F6D988E6FFF713
:101B00004FFD801B0228C8D982E6FFF749FD044635
:101B10002B6813F0007304D1E968204A0A40EA6098
:101B20004CE6FFF73DFD001B0228F1D970E60128C5
:101B30003FF46FAEEB68226A03F0030191427FF439
:101B400050AE616A03F0F0020139B2EB011F7FF47D
:101B500048AEA16A03F4FE42B2EB012F7FF441AE1E
:101B6000E16A03F07842B2EBC16F7FF43AAE226BC8
:101B7000520803F4C001013AB1EB425F7FF431AE89
:101B8000626B520803F0C063013AB3EB426F3FF45B
:101B900015AE26E6001002400C809F01FCFFEEFE11
:101BA000174B9A6802F00C02042A23D09A6802F0BC
:101BB0000C02082A20D09A6802F00C020C2A1DD1CF
:101BC000D968DA68D868DB6801F00301C3F34163C0
:101BD0000329C2F30312C0F3062003F101030CBF73
:101BE000084909495B000132B1FBF2F25043B0FBF6
:101BF000F3F0704704487047024870470020704770
:101C00000010024000127A000024F4002DE9F8438D
:101C10000E46044610B90120BDE8F883614A1368F6
:101C200003F00F038B4244D3276817F001074BD111
:101C30002268910740F191805B4B12F0040F1EBFA8
:101C4000996841F4E0619960120741BF9A6822F4F3
:101C50007C5242F4E0629A609A68A16822F0F00235
:101C60000A439A604F4D2B6803F00F03B3427CD8B0
:101C700022684D4D12F0040F40F08D80130706D5F9
:101C8000AB68226923F4605343EAC203AB60FFF7F9
:101C900087FFAB68454AC3F30313D35C03F01F030C
:101CA000D840434B1860434B1868BDE8F843FFF732
:101CB00045BC136823F00F030B431360136803F054
:101CC0000F038B42A7D1AFE76368374D032B34D1A5
:101CD0002B689F019FD5FFF737FD374B98421AD8E5
:101CE0000027AB68626823F003031343AB60FFF780
:101CF00057FC41F288398046AB68626803F00C03F8
:101D0000B3EB820F94D0FFF74BFCA0EB08004845E3
:101D1000F2D9032080E7AB6813F0F00F05D02368F9
:101D20009807DDD5A368002BDAD1AB6823F0F00368
:101D300043F08003AB608027D3E7022B2B6809D1E7
:101D400013F4003F3FF467AFFFF72AFF1A4B9842A6
:101D5000C6D9EAE713F4806FF4E7802F01BF124A77
:101D6000936823F0F00393607CE72B6823F00F0364
:101D700033432B60FFF714FC41F2883807462B6889
:101D800003F00F03B3423FF473AFFFF709FCC01B2E
:101D90004045F4D9BDE7AB68E16823F4E0630B4349
:101DA000AB606BE70020024000100240143C0008CA
:101DB000000000200800002000B4C404FEE700007A
:101DC00010B501F037F90C4B1C6844B90B4801F011
:101DD00055FE0B490B48012201F050FEFEE7626BF5
:101DE0001A60094A1368013313600023C4E90D33F4
:101DF00001F02AF9204610BDBC0200205C3C00081E
:101E0000693C00086C3C0008C002002070B501F07D
:101E100011F9144E144B00241E60254606F11403DC
:101E20001C2243F8145C03F8045CDD6118460021B1
:101E300001F09EFE072C18BF00F1300204F10104EE
:101E400003460EBFC6F8105245620262082C03F129
:101E50004403E5D1054B0022BDE870401A6001F053
:101E6000F3B800BF9C000020BC020020C00200208C
:101E70000023C0E90033704738B50C46054601F031
:101E8000D9F844B90C4801F0F9FD0C490C4801227D
:101E900001F0F4FDFEE70023C4E90D332B6825644F
:101EA0002BB92C606C60BDE8384001F0CDB86B6890
:101EB0005C63A363F6E700BF5C3C0008913C00084C
:101EC0006C3C000838B5054601F0B4F82C6844B9FC
:101ED0000A4801F0D3FD0A490A48022201F0CEFD6A
:101EE000FEE7626B2A60002332B19363C4E90D33CD
:101EF00001F0AAF8204638BD6B60F7E75C3C0008AB
:101F0000913C00086C3C000813B5044601F092F8BF
:101F10002068019001F098F8019802B010BD00000F
:101F200038B50C46054601F085F80CB12B6843B96D
:101F3000194801F0A3FD19491948032201F09EFD3B
:101F4000FEE7A3426A6811D194424FF0000309D121
:101F5000C5E900330023C4E90D332364BDE83840EC
:101F600001F072B8626B2A609363F3E79442A36B4B
:101F700003D100226B605A63ECE70BB1626B42B98C
:101F8000054801F07BFD05490548042201F076FD76
:101F9000FEE75A63E8E700BF5C3C0008913C00089C
:101FA0006C3C00080068003818BF01207047000032
:101FB000014B1878704700BF1C00002008B501F0E5
:101FC00039F8FFF7F5FF022802BF034B034A1A60F6
:101FD000BDE8084001F038B80C0000206524000876
:101FE000014B1870704700BF1C00002010B5114C49
:101FF000204601F043FD104801F040FD0F4801F07C
:102000003DFD0F4801F03AFD0E4801F037FD204636
:1020100001F034FD0C490D4801F030FD0C490D482C
:1020200001F02CFD0C4801F029FD2046BDE81040D0
:1020300001F024BD123D0008963C0008A33C0008B6
:10204000B13C0008BE3C0008CC3C0008D03C000875
:10205000E43C0008EB3C0008F73C000801F01EB827
:10206000EFF30980094A116820E9F00F08600FB505
:1020700000F0A8F8BDE80F40054A11680868B0E80C
:10208000F00F80F30988014A116070479400002026
:102090009800002008480068006800F1200080F3E4
:1020A00009884FF0020080F31488BFF36F8FBDE8FA
:1020B0000F5004BC104770479400002038B500F062
:1020C000B9FF194B187820B1B0FA80F0C0F12000A8
:1020D000C0B2164C01380C2303FB0040041D2046FF
:1020E000FFF760FF98B12046FFF7ECFE104D014668
:1020F00028602046FFF7C0FE2B6863B90D4801F049
:10210000BDFC0D490D48032201F0B8FCFEE7BDE817
:10211000384000F099BF0220FFF762FF00F094FF03
:10212000BDE83840FFF7B6BFC40200202C000020F5
:10213000940000205C3C0008693C00086C3C0008EE
:10214000014B1B68184700BF0C00002038B500F099
:1021500071FF154B187820B1B0FA80F0C0F1200063
:10216000C0B2124C01380C2303FB0040041D204672
:10217000FFF718FF80B12046FFF7A4FE0C4D014683
:1021800028602046FFF778FE00F05EFF094B2A68C2
:102190001B689A4204D138BDBDE8384000F054BFF6
:1021A000BDE83840FFF75ABFC40200202C000020D1
:1021B0009800002094000020014B1868704700BF71
:1021C0009400002010B5184C2368DB6853F8042CE9
:1021D000164B9A4226D0164801F050FC154801F0E3
:1021E0004DFC154801F04AFC23681448197D01F0A4
:1021F00045FC23681248197F01F040FC2368114810
:10220000D96A01F03BFC23680F48196A890001F084
:1022100035FC0E4801F032FC0D490E48FE2201F05B
:102220002DFCFEE710BD00BF94000020DEC0EFBE15
:10223000103D0008953D0008A53D0008C73D000879
:10224000D53D0008E43D0008F43D00085C3C000872
:10225000693C00086C3C000810B5044600F0EAFE3A
:10226000034B187804431C70BDE8104000F0ECBE2E
:10227000C402002070B504460A4D00F0DBFE207F4A
:102280000C2606FB005021460430FFF7F5FD012324
:102290002374237F7343E85CFFF7DEFFBDE87040E3
:1022A00000F0D2BE2C0000202DE9F84FDDF8289078
:1022B000BDF82CA0DDF830B080460E4617461D460E
:1022C000FFF77EFD044600F0B5FEB9F1000F0BD01C
:1022D000BAF1000F08D0C4F82490A4F828A0042272
:1022E0005146484600F044F9277705F120070123BD
:1022F000BF002562237484F81480A661C4F82CB052
:10230000384600F0A3FCA7F18403034423F0030341
:10231000013DA3EB850505F18002C4E90030E260D0
:10232000114AA5609D421AD32046FFF7A3FF0F4B29
:102330001A68BAB91C6023684FF0807243E90262E0
:102340006FF00201002243E9042143E9062243E938
:102350000822403B2360BDE8F84F00F075BE45F809
:10236000042BDFE7E263E5E7DEC0EFBE20000020DC
:102370001FB500F05FFE0020FFF732FE00F04CFCBE
:10238000FFF744FD00F00AFB1D480022012101FA7D
:1023900002F300F8043C0132FFF76AFD082A00F15D
:1023A0000C00F4D11748FFF763FD1748FFF760FDF5
:1023B000164B00241C70164B1C60164B01201C6031
:1023C000FFF70EFE00F040FE134B14490094CDE9D8
:1023D000014307224FF48063FD20FFF765FF104B98
:1023E00010490094CDE9014322464FF40073FE20CA
:1023F000FFF75AFF04B0BDE81040FFF7F7BD00BF7C
:1024000030000020240000208C000020C4020020A6
:102410009400002098000020103E0008092B0008BE
:102420001E3E0008BD1D000870B50D4E00F002FEF6
:1024300034681CB9BDE8704000F006BE2546646BE8
:102440002B6B3BB930462946FFF76AFD2846FFF75C
:1024500011FFEEE75A1CECD0013B2B63E9E700BF0C
:102460002400002037B50190FFF7DEFF019800F04F
:1024700071F9019800F00CFB00F0DCFD164B1878A8
:1024800020B1B0FA80F0C0F12000C0B2134C013886
:102490000C2303FB0040041D2046FFF783FD88B199
:1024A0002046FFF70FFD0E4D014628602046FFF73E
:1024B000E3FC00F0C9FD0B4B2A681B689A4206D169
:1024C00003B030BD03B0BDE8304000F0BDBD03B087
:1024D000BDE83040FFF7C2BDC40200202C00002040
:1024E000980000209400002010B5044600F0A2FDE2
:1024F000044A137823EA04001070BDE8104000F08D
:10250000A3BD00BFC402002070B504460C4D00F00E
:1025100091FD207F0C2606FB005004302146FFF77A
:10252000FFFC237F7343181D2844FFF73BFD10B9C0
:10253000E85CFFF7D9FFBDE8704000F085BD00BF43
:102540002C00002038B5054600F074FDFFF734FE7E
:1025500004460563FFF7D8FF21460448FFF78CFCCB
:10256000FFF7F4FDBDE8384000F06EBD2400002008
:10257000F7B50E461746044658B351B34AB300F0B8
:1025800059FD164B1A682260201D1C60FFF770FC75
:1025900004F10C00FFF76CFC002507FB06F2104667
:1025A0006761268365832577019200F04FFB019ACE
:1025B0002062294601F0DCFA00F046FD236A5BB98F
:1025C000074801F05BFA07490748012201F056FA73
:1025D000FEE7012003B0F0BD2846FBE7C80200205B
:1025E0005C3C00082B3E00086C3C0008F8B50E4629
:1025F00017460446E8B1E1B100F01CFD227F238BB1
:102600009A4230D39FB1FFF7D7FD0546FFF77CFF15
:102610002946201D2F63FFF72FFC03232B7400F0A6
:1026200013FDFFF793FD00F005FD2B6B1BB900F0C8
:102630000BFD012016E0236A6269E07E314602FB51
:102640000030FDF7DDFDE37E228B0133DBB2B3FB0F
:10265000F2F102FB1133E376237F0133237700F09D
:10266000F3FC0020F8BD00F0E5FC236A6269E07E1F
:10267000314602FB0030FDF7C3FDE37E228B0133C0
:10268000DBB2B3FBF2F102FB1133E376237F0133BC
:10269000237700F0D9FCE2E72DE9F0410F469046A0
:1026A0000446F8B1F1B100F0C5FC257FADBBB8F12F
:1026B000000F15D0FFF780FD0646FFF725FF3146D6
:1026C00004F10C00C6F83080FFF7D6FB0323337407
:1026D00000F0BAFCFFF73AFD00F0ACFC336B1BB91D
:1026E00000F0B2FC012515E0236A6269A17E38463C
:1026F00002FB0131FDF784FDA37E228B0133DBB2A7
:10270000B3FBF2F102FB1133A376237F013B237766
:1027100000F09AFC2846BDE8F08100F08BFC236AAB
:102720006269A17E384602FB0131FDF769FDA37E97
:10273000228B0133DBB2B3FBF2F102FB1133A37640
:10274000237F013B237700F07FFC002500F07CFC19
:10275000E0E70000F8B5064600F06CFC234B1D686E
:102760001DB9BDE8F84000F06FBC2F1D3846FFF7DB
:1027700019FC60B905F10C073846FFF713FC20B1CE
:102780003846FFF7C1FB0446E4B92D68E8E7384650
:10279000FFF7BAFB0446002CECD02A7F2B8B9A4221
:1027A00008D238462146FFF7BBFB2046FFF762FD03
:1027B000646BF0E7236B002BF3D0591C1CBF9B1BF1
:1027C0002363F5E72B7F43B138462146FFF7A8FB8B
:1027D0002046FFF74FFD646BD6E7236B002BF3D049
:1027E0005A1C1CBF9B1B2363F5E700BFC8020020D7
:1027F00008B500F01FFC0D4B0D4A03F10C011960E8
:10280000136003F1180101221A711A741A7783F800
:102810002820D960002203F1240199615A62054BF6
:102820001A60BDE8084000F00FBC00BF740400202F
:102830006C0400207004002008B500F0FBFB0F4B77
:102840000F4A03F150011960136003F1A001022245
:102850001A7183F8542083F8A42083F8F4201965B2
:10286000002203F1F001C3F8A010C3F8F020054BDB
:102870001A60BDE8084000F0E7BB00BFCC020020B2
:102880005C0400206004002008B500F0D3FB0D4B71
:102890000D4A03F114011960136003F128010422A9
:1028A0001A711A7683F82C2083F84020596100228F
:1028B00003F13C019962DA63044B1A60BDE80840F9
:1028C00000F0C2BB0C040020640400206804002057
:1028D00010B500F0AFFB0C4B1C6844B90B4801F07D
:1028E000CDF80B490B48012201F0C8F8FEE7226839
:1028F0001A60094A13680133136000236371E3808F
:1029000000F0A2FB204610BD6C0400205C3C0008D7
:10291000333E00086C3C00087004002010B50446EB
:1029200000F088FB054B1A682260054A1C6013689A
:10293000BDE81040013B136000F086BB6C04002032
:102940007004002010B5044600F074FB054B1A68B3
:102950002260054A1C601368BDE81040013B13600B
:1029600000F072BB5C0400206004002010B5044637
:1029700000F060FB074B20691A682260064A1C6061
:102980001368013B136000F0CDF9BDE8104000F082
:102990005BBB00BF640400206804002008B5FFF79B
:1029A00027FFFFF749FFBDE80840FFF76DBF0000B4
:1029B00008B50379022B07D0042B09D0012B0BD1CA
:1029C000BDE80840FFF7AABFBDE80840FFF7BABF5F
:1029D000BDE80840FFF7CABF044801F04FF80449BA
:1029E00004480A2201F04AF8FEE700BF5C3C0008F8
:1029F000333E00086C3C000808B500F01BFB0B4B95
:102A00000B491960002301F10C0218460F2B03F14A
:102A1000010314BF42F80C2CC1F8B400102B02F1D2
:102A20000C02F3D1BDE8084000F00EBB8C0500207D
:102A3000CC04002008B5FFF7DFFF0422114603484D
:102A4000FFF796FD003818BF012008BDA80400203C
:102A500038B50E4D044600F0EDFA2B6819461846BD
:102A600018B900F0F1FA01200BE0A042026809D188
:102A7000984214BF0A602A6000F054F900F0E4FAAA
:102A8000002038BD01461046EAE700BFA40400203C
:102A9000174B1B68D3B543B3164CD4E900678219B2
:102AA00047F10003C4E90023237A012B1DD100F074
:102AB000C1FA00232372FFF70BFFFF2343714FF688
:102AC000FD53C380019000F0BFFA0B484FF0FF3276
:102AD00001A9FFF78BFD40B1084800F0CFFF08497E
:102AE0000848032200F0CAFFFEE702B0D0BD00BFD5
:102AF000A404002090050020A80400205C3C0008ED
:102B0000373E00086C3C00082DE9F743FFF792FFC1
:102B1000804640B13A4800F0B1FF3A493A480422B1
:102B200000F0ACFFFEE7DFF8EC900190012389F89C
:102B3000083036484FF0FF3201A9FFF7ADFD40B134
:102B40002F4800F09BFF2F492F48052200F096FFE9
:102B5000FEE700F06FFA2E4B00221C680023D9E933
:102B60000067C9E90023012389F8083000F06CFAF6
:102B7000019BDB79FD2B19D0214800F07FFF214913
:102B80002148072200F07AFFFEE700F053FAD4E96B
:102B90000453AE4278EB03020ED2AD1B63F1000387
:102BA000C4E9045300F050FA4DB12468002CECD174
:102BB0000198FFF7FDFEBCE700252B46F0E7D4E9BE
:102BC0000830984700F036FA237A012B0ABFD4E97F
:102BD00006232546C4E9042300F036FA2468002DB4
:102BE000E4D02846FFF734FF0028DFD0044800F087
:102BF00045FF04490448062200F040FFFEE700BFFD
:102C00005C3C0008373E00086C3C0008A80400202B
:102C1000A404002090050020084B4FF480421A6065
:102C2000074A084B136043F6F0710022C3E9002203
:102C30001A72D960044B1960704700BF1000002061
:102C4000A4450020A4050020A0050020F8B50446F6
:102C500000F0F0F9E21C32F0030203D02B4E316891
:102C6000914208D22A4800F009FF2A492A48012245
:102C700000F004FFFEE7294B1B6843B9244800F02D
:102C8000FDFE24492448022200F0F8FEFEE7DD683C
:102C90009542F1D3187A0028EED1AC1A182C07D837
:102CA000103901224D1B03F110071A72356023E021
:102CB000103C0F2C0AD800F0C7F9154800F0DEFED2
:102CC00014491548032200F0D9FEFEE702F1100C6A
:102CD00003EB0C0503F1100728721868EC6043F849
:102CE0000C0001206B6018721868DA6000B1456052
:102CF00010398A1A1D603260094B326819688A429D
:102D000000D21A6000F0A0F93846F8BDA0050020F6
:102D10005C3C00083D3E00086C3C0008A4450020D7
:102D20001000002010B5044640B91D4800F0A6FE72
:102D30001C491D48052200F0A1FEFEE700F07AF9CB
:102D40001A4854F8041C002204F8082C02681032B7
:102D50000A44026054F80C2CA4F1100372B1107AEA
:102D600060B9D3681031194454F8103C136054F81A
:102D7000103CD16003B15A6054F80C3C196851B151
:102D80000A7A42B9DA68C86810320244DA600A681E
:102D90001A6002B15360BDE8104000F055B900BFA1
:102DA0005C3C00083D3E00086C3C0008A00500208B
:102DB0007047704707B50320FEF754FC0F20FEF75D
:102DC000BDFBB8B90D4B1A6E42F001021A661A6EBD
:102DD00002F001020092009A9A6D42F080529A65C8
:102DE0009B6D03F080530193019B03B05DF804EBEE
:102DF000FEF7A2BC03B05DF804FB00BF0010024068
:102E000010B594B03822002106A800F0B1FE1422BB
:102E1000002101A800F0ACFE0020FEF733FC4FF4C7
:102E2000807140220223CDE909120424552206A80C
:102E3000CDE90D33CDE90F42CDE91133069313935C
:102E4000FEF7A2FC0F200323CDE901032146002356
:102E50000DEB0400CDE903330593FEF7D7FE14B064
:102E600010BD07B500238DF8073000F095FA8DF8F6
:102E7000070003B05DF804FB044808B500F0FEFD50
:102E800003490448012200F0F9FDFEE75C3C00081C
:102E9000423E00086C3C0008044808B500F0EEFD16
:102EA00003490448062200F0E9FDFEE75C3C000807
:102EB000423E00086C3C0008044808B500F0DEFD06
:102EC00003490448052200F0D9FDFEE75C3C0008F8
:102ED000423E00086C3C0008044808B500F0CEFDF6
:102EE00003490448042200F0C9FDFEE75C3C0008E9
:102EF000423E00086C3C0008044808B500F0BEFDE6
:102F000003490448032200F0B9FDFEE75C3C0008D9
:102F1000423E00086C3C0008044808B500F0AEFDD5
:102F200003490448022200F0A9FDFEE75C3C0008CA
:102F3000423E00086C3C000808B5054A13680120B1
:102F400001331360FFF7FCF8BDE80840FEF71CBB37
:102F5000A8450020024BF02283F82220704700BFD2
:102F600000ED00E0FFF7F6BF13B572B6FEF76CF8A0
:102F7000254B264A26498B422FD3264B264A002131
:102F800093422FD3FFF716FF244CFFF739FFFFF7CB
:102F9000E9FF234B1B1B9B10019300230093009A16
:102FA000019B9A4221D31F4C1F4B1B1B9B1001936B
:102FB00000230093009A019B9A421DD34FF4E13005
:102FC00000F07EF9194B1A4A1A6000F0F6F962B661
:102FD00002B0BDE8104000F097BD52F8040B43F872
:102FE000040BC8E743F8041BCAE7009B54F82330DE
:102FF0009847009B0133D1E7009B54F82330984752
:10300000009B0133D5E700BF00000020943E00087C
:103010001400002018000020B8450020943E00084D
:10302000943E0008943E0008943E0008B4450020F9
:103030007D330008034B1A6802B972B61A68013270
:103040001A607047AC450020094A08B51368013B77
:10305000002B136001D162B608BDFDDA054800F00F
:103060000DFD05490548012200F008FDFEE700BFFF
:10307000AC4500205C3C0008463E00086C3C000863
:1030800007B5FFF7D7FF044B1B680193FFF7DCFF81
:10309000019803B05DF804FBA8450020024B4FF0F7
:1030A00080525A60704700BF00ED00E0024BD868C4
:1030B000C0F30220704700BF00ED00E0054BDA6C62
:1030C0000243DA64DB6C82B018400190019B02B0CD
:1030D000704700BF001002408161704781627047F5
:1030E000014B9862704700BF00380140014B586A9D
:1030F000C0B2704700380140044A52E8003F43F034
:10310000200342E800310029F7D170470038014020
:10311000024BD869C0F38050704700BF00380140AF
:10312000024BD869C0F34050704700BF00380140DF
:10313000024BD869C0F3C010704700BF003801408F
:10314000024BD869C0F38010704700BF00380140BF
:10315000024BD869C0F34010704700BF00380140EF
:10316000044B5A6822F490425A609A6822F02A026C
:103170009A60704700380140044A52E8003F23F04B
:10318000606342E800310029F7D1704708380140F8
:10319000044A52E8003F23F0604342E8003100292E
:1031A000F7D1704708380140024A136823F00053F2
:1031B0001360704700380140024A136843F001036E
:1031C0001360704700380140064B1A6E42F480428B
:1031D0001A661B6E82B003F480430193019B02B018
:1031E000704700BF00100240034AD2F8883023F035
:1031F0000303C2F888307047001002400020704777
:10320000024B0001C0B283F82503704700E100E0E3
:10321000014B20225A60704700E100E07FB5182280
:103220000021684600F0A4FC0220FFF747FF0420BD
:10323000FFF744FF4FF440620123CDE900236946C4
:10324000002307480493CDE90233FDF778FF4023BC
:10325000694604480093FDF772FF07B05DF804FB70
:10326000000400480008004801484021FFF734BF2F
:103270000008004801484021FFF730BF000800481F
:1032800002484FF48061FFF727BF00BF00040048E9
:1032900002484FF48061FFF721BF00BF00040048DF
:1032A00002484FF40061FFF717BF00BF0004004859
:1032B00002484FF40061FFF711BF00BF000400484F
:1032C000F0B58FB005462022002106A800F050FC82
:1032D00018220021684600F04BFC01200024FFF773
:1032E00083FF0227FFF770FF0726FFF7E7FE694617
:1032F0004FF400734FF09040CDE90037CDE9024420
:1033000004940596FDF71BFF4FF4806369464FF068
:103310009040CDE90037CDE90244CDE90446FDF700
:103320000EFF0C2306A914480A94CDE90B34CDE90D
:103330000645CDE908440D94FEF7AEF8FFF728FFE7
:10334000FFF71AFFFFF730FFFFF70AFFFFF7D4FE82
:10335000FFF7ACFEFFF752FFFFF752FFFFF758FFF2
:10336000FFF72AFFFFF7DCFE0028FBD0FFF7D0FEB7
:103370000028F7D00FB0F0BD0038014008B5024674
:10338000FFF7D6FE0028FBD01046FFF7A9FEFFF797
:10339000D7FE0028FBD008BD07B500238DF8073005
:1033A000FFF7D6FE0028FBD0FFF7A0FE8DF8070040
:1033B0009DF8070003B05DF804FBFFF72FBF000086
:1033C0002DE9F0470FF2B809D9E90089304F0446DA
:1033D0000D464FF0000A00262D4B002220462946BC
:1033E000FDF75EFC80B926A7D7E90067DFF8A0905B
:1033F0004FF00008274B002220462946FDF73CFCF1
:1034000000BB5046BDE8F0871DA3D3E9002320464A
:103410002946FDF745FC50B12046294642464B4619
:10342000FDF7E2FA0AF1050A04460D46D4E7204604
:10343000294632463B46FDF7D7FA0AF1010A04460F
:103440000D46C9E710A3D3E9002320462946FDF71E
:1034500013FC50B12046294632463B46FDF79AF907
:10346000AAF1050A04460D46C4E72046294642460D
:103470004B46FDF78FF90AF1FF3A04460D46B9E7CE
:1034800000000000006AF840F168E388B5F8E43E07
:10349000000024400000F03F2DE9D0430FF2600906
:1034A000D9E900891849194F044600260020002C4C
:1034B00008DC0FF24C09D9E90089144F00267CB9C9
:1034C000BDE8D083042C05DD42464B46FDF762F98A
:1034D000053CECE732463B46FDF75CF9013CE6E78C
:1034E000231D05DA42464B46FDF77EFA0534E6E732
:1034F00032463B46FDF778FA0134E0E7AFF300804F
:1035000000000000006AF8400000F03F0000244086
:103510002DE9F74F9DF834100191044619461046E5
:103520000C9F92469B46FDF7CFFB002840F0BF80E2
:10353000002F4FF000024FF0000350465946B8BF2D
:103540000627FDF799FB00287FD00BF100439B462F
:103550002D232BF0004900934FF0FF325D4B504676
:103560004946FDF7B1FB48B95A4B4FF0FF32504680
:103570004946FDF78BFB002800F0A280019B662BDB
:1035800065D17842FFF788FF534B0022FDF702F91F
:103590000B46024659465046FCF746FF82468B468C
:1035A000FFF70EFF20EAE075EB191C2B00F38D806E
:1035B0000026009B2D2B02D1009B04F8013B7B428F
:1035C00000932846FFF768FF02460B46804689466F
:1035D00050465946FDF708FAFDF78CFB0746FDF704
:1035E0006FF842464B46FDF7D5F802460B4650466B
:1035F0005946FCF717FF6A1C234604BF2E2203F826
:10360000012B009A1C46013D3037AA4204F8017B89
:1036100082468B46D5DD019A662A11D0002E5A705B
:10362000BABF76422D222B220A209A70B6FBF0F206
:1036300002F1300100FB12623032D9705C1D1A7148
:103640000023237003B0BDE8F08F2B2381E7002215
:10365000002350465946FDF705FB0546B8BB5946C1
:103660005046FFF7ADFEC01BFFF716FF1A4B0022B6
:10367000FDF790F852465B46FCF7D6FE8046894639
:10368000FFF79EFE632820DC192F1EDC6FF0620618
:103690008642B8BF06463046FFF7FEFE02460B469E
:1036A00040464946FDF7A0F982468B4681E70B4B21
:1036B0001A7804F8012B13F8012F002AF8D1BFE77C
:1036C000074B009A04F8012BF2E7064BF9E70025B7
:1036D0002E466EE7FFFFEF7F0000E03F4A3E000806
:1036E000513E00084E3E00080A2970B505460C46BA
:1036F00002D10D21FFF7F8FF25B120462B46BDE88A
:1037000070401847034A136813B1591C11601C70AC
:1037100070BD00BFB04500202DE9F04F0B468FB0C3
:1037200007461978002900F0A481252907D00292C4
:103730005C1C3846FFF7D8FF029A1646CAE0597853
:10374000302922D18B469978DC1C00252A2934D1D6
:1037500052F8043B14F8011B002BBCBF5B4202254E
:1037600098462E2949D121782A2929D001344FF0B1
:103770000009A1F13003092B26D80A2303FB0919FC
:10378000A9F1300914F8011BF3E72D2903D09C1C83
:103790004FF0200BD9E79978DC1C4FF0200B022565
:1037A000D4E70A2303FB081814F8011BA8F130081A
:1037B000A1F13003092BF4D9D3E74FF00008F7E764
:1037C00052F8049B617802346C290AD121786C2963
:1037D0000DBF617845F00405013445F00C0508BFC4
:1037E0000234002900F0458166294AD8572907D8B4
:1037F000452900F0A78002929BE74FF0FF39E3E7ED
:10380000A1F158030E2BF6D801A050F823F000BF09
:10381000C1380008F7370008F7370008F737000805
:10382000F7370008F7370008F7370008F7370008C0
:10383000F7370008F73700084D380008C738000888
:103840009F39000845390008453900084FF0020A41
:1038500015F0080000F0A680073222F00702164695
:10386000642956F8083BD2F8049040F0A780B9F1DB
:10387000000F80F2A3805B4269EB490945F0010526
:103880009CE0A1F16F03D8B20928B4D8092BB2D8B3
:1038900001A050F823F000BF99390008F73700085D
:1038A000F7370008F7370008DB380008F73700085B
:1038B0009F390008F7370008F7370008C1380008BB
:1038C0004FF0100AC4E71646384656F8041BC9B232
:1038D000FFF70AFF3246234623E71646664A56F8A4
:1038E000043B002B08BF134618460293FCF728FD43
:1038F000B9F1000F029B824602DB484528BFCA4649
:10390000AD0715D59944197809B14B4513D1D04568
:10391000E0D920213846FFF7E7FE0AF1010AF6E771
:10392000594638460293FFF7DFFE029B0AF1010A6F
:10393000D045F5D8E6E7013338460293FFF7D4FEC9
:10394000029BE0E7CDE90091073222F00706F6E896
:10395000022306A8FFF7DCFD06A8FCF7F1FC814670
:10396000A80712D506AD15F8011B89B9C845B1D90C
:1039700020213846FFF7B8FE09F10109F6E759465C
:103980003846FFF7B1FE09F10109C845F7D8E9E764
:103990003846FFF7A9FEE6E74FF0080A58E74FF070
:1039A0000A0A55E715F00409136802F1040652D01B
:1039B000642902D14FEAE37959E7814678290393D4
:1039C0000CBF27230723059306AB0493002303981A
:1039D0000293494652460023FDF7B4F9D2B2092AB0
:1039E00088BF059BDDF80CE0039088BFD218CC4659
:1039F00088BFD2B289460499029B303201F8012B6C
:103A0000D6457CF1000203F10103049103D3202B7E
:103A1000DDD11F220292E90706D538336B442D22EF
:103A200003F8202C029B0233AA0799461ED506AD47
:103A3000013B3846E95C0293FFF756FE029B002BE0
:103A4000F6D1C8457FF646AF20213846FFF74CFE39
:103A500009F10109F5E76429B0D1ABE759463846C9
:103A60000293FFF741FE029B09F10109C845F5D811
:103A7000DDE70FB0BDE8F08F133D00080FB407B5C8
:103A8000064B04AA186852F8041B0192FFF744FE83
:103A900003B05DF804EB04B0704700BFB4450020EC
:103AA00008B5FFF7E1FB4FF4FA70FEF74BFDFFF7A7
:103AB000E1FB4FF4FA70FEF745FDF2E708B5FFF7BA
:103AC000DFFB4FF4FA70FEF73DFDFFF7E1FB4FF42B
:103AD000FA70FEF737FDF2E708B50A4CFFF7E0FB96
:103AE000FFF7CEFA01462046FFF7C8FF4FF4FA7001
:103AF000FEF728FDFFF7DCFB4FF4FA70FEF722FD1E
:103B0000ECE700BF553E00081FB5FEF731FC00246E
:103B10000122114B02931046CDE900440F49802346
:103B2000FEF7C2FB0E4B0F4900940222CDE9014380
:103B300010468023FEF7B8FB0B4B0C490094032280
:103B4000CDE9014310468023FEF7AEFB04B0BDE88B
:103B50001040FEF7B3BA00BF743E0008A13A000857
:103B60007B3E0008BD3A0008823E0008D93A0008B2
:103B7000830730B548D0541E002A3FD0CAB203464E
:103B800001E0013C3AD303F8012B9D07F9D1032C46
:103B90002DD9CDB245EA05250F2C45EA054536D984
:103BA000A4F1100222F00F0C03F1200EE6444FEABC
:103BB000121C03F1100242E9045542E90255103289
:103BC0007245F8D10CF1010214F00C0F03EB021254
:103BD00004F00F0C13D0ACF1040323F003030433FF
:103BE000134442F8045B9342FBD10CF003042CB164
:103BF000CAB21C4403F8012B9C42FBD130BD644681
:103C00001346002CF4D1F9E703461446BFE71A46E1
:043C1000A446E0E7FF
:103C14000000000000000000010203040607080978
:103C24000000000001020304010000000200000083
:103C34000400000006000000080000000A00000064
:103C44000C000000100000002000000040000000F4
:103C54008000000000010000464154414C204552C0
:103C6400524F520A004F5300666174616C5F74795D
:103C740070653A202573200920666174616C5F6366
:103C84006F64653A203078253032580A0046494638
:103C94004F00205F5F5F5F20205F20205F0A0028C5
:103CA40020205F205C2820292F20290A0020292099
:103CB40020202F28202020280A00285F295C5F2943
:103CC400285F295C5F290A00312E30004B65726E33
:103CD400656C2076657273696F6E3A2025730A00ED
:103CE40047616F44656E00417574686F723A2025B0
:103CF400730A004275696C6420646174653A204AF1
:103D0400616E20313020323032360A000A0A0A004D
:103D14007461736B20696E666F6D6174696F6E7325
:103D24000A005B7461736B2069645D3A202564202A
:103D3400095B7461736B207072696F726974795D69
:103D44003A20256420095B7461736B20737461638A
:103D54006B2073697A655D3A202564206279746505
:103D64007320095B7461736B20737461636B2075DA
:103D74007365645D3A202564206279746573200953
:103D84005B7461736B206E616D655D3A2025730A07
:103D9400002D3E204F53204F535F464154414C0A5F
:103DA400002E666174616C20696E666F3A207461DE
:103DB400736B20737461636B206F766572666C6FCE
:103DC400770A002E7461736B2069643A2025640AB3
:103DD400002E7461736B207072693A2025640A00A6
:103DE4002E7461736B206E616D653A2025730A0031
:103DF4002E7461736B20737461636B2073697A65CD
:103E04003A2025642062797465730A0074696D65CB
:103E1400725F73657276696365007461736B5F6F5B
:103E2400735F69646C65004D41494C424F58004DC5
:103E340053470054494D4552004845415000535999
:103E44005300495352004E614E004F5600494E46AE
:103E5400005B7461736B5F625D2073797374656D6D
:103E6400206D696C69733A20256C64206D730A00B7
:103E74007461736B5F61007461736B5F6200746182
:083E8400736B5F630000000096
:083E8C00E8CEFF7F01000000F9
:103E94000024F4000100000010000000BD1F000811
:043EA40000400000DA
:0400000508002F6957
:00000001FF
